{
  "contractName": "ProductManagement",
  "abi": [
    {
      "anonymous": false,
      "inputs": [
        {
          "indexed": true,
          "internalType": "address",
          "name": "previousOwner",
          "type": "address"
        },
        {
          "indexed": true,
          "internalType": "address",
          "name": "newOwner",
          "type": "address"
        }
      ],
      "name": "OwnershipTransferred",
      "type": "event"
    },
    {
      "anonymous": false,
      "inputs": [
        {
          "indexed": false,
          "internalType": "bytes32",
          "name": "uuid",
          "type": "bytes32"
        },
        {
          "indexed": false,
          "internalType": "uint256",
          "name": "_location",
          "type": "uint256"
        },
        {
          "indexed": false,
          "internalType": "uint256",
          "name": "_price",
          "type": "uint256"
        },
        {
          "indexed": false,
          "internalType": "string",
          "name": "_serial",
          "type": "string"
        },
        {
          "indexed": false,
          "internalType": "address",
          "name": "_brand",
          "type": "address"
        },
        {
          "indexed": false,
          "internalType": "uint256",
          "name": "_grade",
          "type": "uint256"
        },
        {
          "indexed": false,
          "internalType": "uint256",
          "name": "_product_type",
          "type": "uint256"
        },
        {
          "indexed": false,
          "internalType": "uint256",
          "name": "total_parts",
          "type": "uint256"
        }
      ],
      "name": "ProductCreated",
      "type": "event"
    },
    {
      "anonymous": false,
      "inputs": [
        {
          "indexed": false,
          "internalType": "address",
          "name": "prev_owner",
          "type": "address"
        },
        {
          "indexed": false,
          "internalType": "address",
          "name": "new_owner",
          "type": "address"
        }
      ],
      "name": "ProductOwnershipTransfered",
      "type": "event"
    },
    {
      "inputs": [],
      "name": "hash_counter",
      "outputs": [
        {
          "internalType": "uint256",
          "name": "",
          "type": "uint256"
        }
      ],
      "stateMutability": "view",
      "type": "function",
      "constant": true
    },
    {
      "inputs": [
        {
          "internalType": "bytes32",
          "name": "",
          "type": "bytes32"
        }
      ],
      "name": "hash_to_id",
      "outputs": [
        {
          "internalType": "uint256",
          "name": "",
          "type": "uint256"
        }
      ],
      "stateMutability": "view",
      "type": "function",
      "constant": true
    },
    {
      "inputs": [
        {
          "internalType": "uint256",
          "name": "",
          "type": "uint256"
        }
      ],
      "name": "id_to_hash",
      "outputs": [
        {
          "internalType": "bytes32",
          "name": "",
          "type": "bytes32"
        }
      ],
      "stateMutability": "view",
      "type": "function",
      "constant": true
    },
    {
      "inputs": [],
      "name": "owner",
      "outputs": [
        {
          "internalType": "address",
          "name": "",
          "type": "address"
        }
      ],
      "stateMutability": "view",
      "type": "function",
      "constant": true
    },
    {
      "inputs": [
        {
          "internalType": "enum ProductManagement.Product_Type",
          "name": "",
          "type": "uint8"
        },
        {
          "internalType": "uint256",
          "name": "",
          "type": "uint256"
        }
      ],
      "name": "product_already_used",
      "outputs": [
        {
          "internalType": "uint256",
          "name": "",
          "type": "uint256"
        }
      ],
      "stateMutability": "view",
      "type": "function",
      "constant": true
    },
    {
      "inputs": [
        {
          "internalType": "bytes32",
          "name": "",
          "type": "bytes32"
        }
      ],
      "name": "product_owners",
      "outputs": [
        {
          "internalType": "address",
          "name": "",
          "type": "address"
        }
      ],
      "stateMutability": "view",
      "type": "function",
      "constant": true
    },
    {
      "inputs": [
        {
          "internalType": "enum ProductManagement.Product_Type",
          "name": "",
          "type": "uint8"
        },
        {
          "internalType": "bytes32",
          "name": "",
          "type": "bytes32"
        }
      ],
      "name": "product_to_product_id_to_is_used",
      "outputs": [
        {
          "internalType": "bool",
          "name": "",
          "type": "bool"
        }
      ],
      "stateMutability": "view",
      "type": "function",
      "constant": true
    },
    {
      "inputs": [
        {
          "internalType": "enum ProductManagement.Product_Type",
          "name": "",
          "type": "uint8"
        }
      ],
      "name": "product_to_stock",
      "outputs": [
        {
          "internalType": "uint256",
          "name": "",
          "type": "uint256"
        }
      ],
      "stateMutability": "view",
      "type": "function",
      "constant": true
    },
    {
      "inputs": [
        {
          "internalType": "bytes32",
          "name": "",
          "type": "bytes32"
        }
      ],
      "name": "products",
      "outputs": [
        {
          "internalType": "string",
          "name": "serial",
          "type": "string"
        },
        {
          "internalType": "address",
          "name": "brand",
          "type": "address"
        },
        {
          "internalType": "address",
          "name": "manufacturer",
          "type": "address"
        },
        {
          "internalType": "enum ProductManagement.Product_Type",
          "name": "product_type",
          "type": "uint8"
        },
        {
          "internalType": "uint256",
          "name": "manufacture_date",
          "type": "uint256"
        },
        {
          "internalType": "uint256",
          "name": "location",
          "type": "uint256"
        },
        {
          "internalType": "enum ProductManagement.Grade",
          "name": "grade",
          "type": "uint8"
        },
        {
          "internalType": "uint256",
          "name": "price",
          "type": "uint256"
        },
        {
          "internalType": "uint256",
          "name": "part_counter",
          "type": "uint256"
        },
        {
          "internalType": "uint256",
          "name": "owner_counter",
          "type": "uint256"
        }
      ],
      "stateMutability": "view",
      "type": "function",
      "constant": true
    },
    {
      "inputs": [],
      "name": "renounceOwnership",
      "outputs": [],
      "stateMutability": "nonpayable",
      "type": "function"
    },
    {
      "inputs": [
        {
          "internalType": "uint256",
          "name": "_location",
          "type": "uint256"
        },
        {
          "internalType": "uint256",
          "name": "_price",
          "type": "uint256"
        },
        {
          "internalType": "uint256[]",
          "name": "_parts",
          "type": "uint256[]"
        },
        {
          "internalType": "string",
          "name": "_serial",
          "type": "string"
        },
        {
          "internalType": "address",
          "name": "_brand",
          "type": "address"
        },
        {
          "internalType": "uint8",
          "name": "_grade",
          "type": "uint8"
        },
        {
          "internalType": "uint8",
          "name": "_product_type",
          "type": "uint8"
        }
      ],
      "name": "createProduct",
      "outputs": [],
      "stateMutability": "nonpayable",
      "type": "function"
    },
    {
      "inputs": [
        {
          "internalType": "address",
          "name": "_new_owner",
          "type": "address"
        },
        {
          "internalType": "string",
          "name": "_serial",
          "type": "string"
        },
        {
          "internalType": "address",
          "name": "_brand",
          "type": "address"
        },
        {
          "internalType": "uint8",
          "name": "_product_type",
          "type": "uint8"
        }
      ],
      "name": "transferOwnership",
      "outputs": [],
      "stateMutability": "nonpayable",
      "type": "function"
    },
    {
      "inputs": [
        {
          "internalType": "address",
          "name": "newOwner",
          "type": "address"
        }
      ],
      "name": "transferOwnership",
      "outputs": [],
      "stateMutability": "nonpayable",
      "type": "function"
    },
    {
      "inputs": [
        {
          "internalType": "address",
          "name": "_transit_manager",
          "type": "address"
        }
      ],
      "name": "setTransitManager",
      "outputs": [],
      "stateMutability": "nonpayable",
      "type": "function"
    },
    {
      "inputs": [
        {
          "internalType": "uint256",
          "name": "_id",
          "type": "uint256"
        }
      ],
      "name": "getProductLocation",
      "outputs": [
        {
          "internalType": "uint256",
          "name": "location_",
          "type": "uint256"
        }
      ],
      "stateMutability": "view",
      "type": "function",
      "constant": true
    },
    {
      "inputs": [
        {
          "internalType": "bytes32",
          "name": "_hash",
          "type": "bytes32"
        },
        {
          "internalType": "uint256",
          "name": "_newLocation",
          "type": "uint256"
        }
      ],
      "name": "setProductLocation",
      "outputs": [],
      "stateMutability": "nonpayable",
      "type": "function"
    },
    {
      "inputs": [
        {
          "internalType": "bytes32",
          "name": "_uuid",
          "type": "bytes32"
        },
        {
          "internalType": "uint256",
          "name": "_part_id",
          "type": "uint256"
        }
      ],
      "name": "getPartsHash",
      "outputs": [
        {
          "internalType": "bytes32",
          "name": "part_uuid_",
          "type": "bytes32"
        }
      ],
      "stateMutability": "view",
      "type": "function",
      "constant": true
    },
    {
      "inputs": [
        {
          "internalType": "bytes32",
          "name": "_uuid",
          "type": "bytes32"
        }
      ],
      "name": "getTotalPartsCount",
      "outputs": [
        {
          "internalType": "uint256",
          "name": "total_parts_",
          "type": "uint256"
        }
      ],
      "stateMutability": "view",
      "type": "function",
      "constant": true
    },
    {
      "inputs": [
        {
          "internalType": "bytes32",
          "name": "_uuid",
          "type": "bytes32"
        },
        {
          "internalType": "uint256",
          "name": "_owner_id",
          "type": "uint256"
        }
      ],
      "name": "getProductOwnerAtIndex",
      "outputs": [
        {
          "internalType": "address",
          "name": "owner_",
          "type": "address"
        }
      ],
      "stateMutability": "view",
      "type": "function",
      "constant": true
    },
    {
      "inputs": [
        {
          "internalType": "bytes32",
          "name": "_uuid",
          "type": "bytes32"
        }
      ],
      "name": "getTotalOwnerCount",
      "outputs": [
        {
          "internalType": "uint256",
          "name": "total_owners_",
          "type": "uint256"
        }
      ],
      "stateMutability": "view",
      "type": "function",
      "constant": true
    },
    {
      "inputs": [
        {
          "internalType": "string",
          "name": "_serial",
          "type": "string"
        },
        {
          "internalType": "address",
          "name": "_brand",
          "type": "address"
        },
        {
          "internalType": "uint8",
          "name": "_product_type",
          "type": "uint8"
        }
      ],
      "name": "getProductHash",
      "outputs": [
        {
          "internalType": "bytes32",
          "name": "hash_",
          "type": "bytes32"
        }
      ],
      "stateMutability": "pure",
      "type": "function",
      "constant": true
    },
    {
      "inputs": [
        {
          "internalType": "uint256",
          "name": "_id",
          "type": "uint256"
        }
      ],
      "name": "getProductHash",
      "outputs": [
        {
          "internalType": "bytes32",
          "name": "hash_",
          "type": "bytes32"
        }
      ],
      "stateMutability": "view",
      "type": "function",
      "constant": true
    }
  ],
  "bytecode": "0x60806040523480156200001157600080fd5b50600062000024620000c860201b60201c565b9050806000806101000a81548173ffffffffffffffffffffffffffffffffffffffff021916908373ffffffffffffffffffffffffffffffffffffffff1602179055508073ffffffffffffffffffffffffffffffffffffffff16600073ffffffffffffffffffffffffffffffffffffffff167f8be0079c531659141344cd1fd0a4f28419497f9722a3daafe3b4186f6b6457e060405160405180910390a350620000d0565b600033905090565b61351a80620000e06000396000f3fe608060405234801561001057600080fd5b50600436106101425760003560e01c80638b9173f1116100b8578063cb867ee31161007c578063cb867ee3146103f0578063e224c8541461040e578063e64e53021461043e578063ec333e291461045a578063f2fde38b1461048a578063fe43a525146104a657610142565b80638b9173f1146103125780638cc8a6aa146103425780638da5cb5b146103725780639d58f0da14610390578063c70d036e146103c057610142565b8063715018a61161010a578063715018a61461022357806374115f701461022d57806379054391146102495780637eda3ef0146102825780638139b2c4146102b257806389259c4b146102e257610142565b8063020b1303146101475780631fad7cda146101775780632d837dde146101a75780635fece5db146101c357806361e3eb78146101f3575b600080fd5b610161600480360381019061015c919061268e565b6104c2565b60405161016e9190612dd4565b60405180910390f35b610191600480360381019061018c919061268e565b6104da565b60405161019e9190612af2565b60405180910390f35b6101c160048036038101906101bc9190612613565b61050d565b005b6101dd60048036038101906101d8919061271c565b61085c565b6040516101ea9190612b36565b60405180910390f35b61020d60048036038101906102089190612758565b61088b565b60405161021a9190612dd4565b60405180910390f35b61022b6108bc565b005b610247600480360381019061024291906125ea565b6109f6565b005b610263600480360381019061025e919061268e565b610ab6565b6040516102799a99989796959493929190612bf1565b60405180910390f35b61029c60048036038101906102979190612794565b610bec565b6040516102a99190612b51565b60405180910390f35b6102cc60048036038101906102c7919061268e565b610c0d565b6040516102d99190612dd4565b60405180910390f35b6102fc60048036038101906102f7919061268e565b610c2d565b6040516103099190612dd4565b60405180910390f35b61032c600480360381019061032791906126f3565b610c4d565b6040516103399190612dd4565b60405180910390f35b61035c600480360381019061035791906127fb565b610c65565b6040516103699190612b51565b60405180910390f35b61037a610c7d565b6040516103879190612af2565b60405180910390f35b6103aa60048036038101906103a591906127fb565b610ca6565b6040516103b79190612b51565b60405180910390f35b6103da60048036038101906103d591906126b7565b610d7b565b6040516103e79190612b51565b60405180910390f35b6103f8610dad565b6040516104059190612dd4565b60405180910390f35b610428600480360381019061042391906126b7565b610db3565b6040516104359190612af2565b60405180910390f35b610458600480360381019061045391906126b7565b610e05565b005b610474600480360381019061046f91906127fb565b610eb4565b6040516104819190612dd4565b60405180910390f35b6104a4600480360381019061049f91906125ea565b610ee7565b005b6104c060048036038101906104bb9190612824565b611090565b005b60086020528060005260406000206000915090505481565b60036020528060005260406000206000915054906101000a900473ffffffffffffffffffffffffffffffffffffffff1681565b600061052584846105208560ff16611c16565b611dc3565b90503373ffffffffffffffffffffffffffffffffffffffff166003600083815260200190815260200160002060009054906101000a900473ffffffffffffffffffffffffffffffffffffffff1673ffffffffffffffffffffffffffffffffffffffff16146105c8576040517f08c379a00000000000000000000000000000000000000000000000000000000081526004016105bf90612d74565b60405180910390fd5b8473ffffffffffffffffffffffffffffffffffffffff166003600083815260200190815260200160002060009054906101000a900473ffffffffffffffffffffffffffffffffffffffff1673ffffffffffffffffffffffffffffffffffffffff16141561066a576040517f08c379a000000000000000000000000000000000000000000000000000000000815260040161066190612d34565b60405180910390fd5b846003600083815260200190815260200160002060006101000a81548173ffffffffffffffffffffffffffffffffffffffff021916908373ffffffffffffffffffffffffffffffffffffffff1602179055508460026000838152602001908152602001600020600901600060026000858152602001908152602001600020600a0160008154809291906106fc906130a8565b91905055815260200190815260200160002060006101000a81548173ffffffffffffffffffffffffffffffffffffffff021916908373ffffffffffffffffffffffffffffffffffffffff16021790555060005b60026000838152602001908152602001600020600801548110156107b25761079f86336002600086815260200190815260200160002060070160008581526020019081526020016000205461210c565b80806107aa906130a8565b91505061074f565b507f566e457b3f7a29d395daa19f3c290756c451b69c954a3efd536428a6c0ad27bc600260008381526020019081526020016000206009016000600160026000868152602001908152602001600020600a015461080f9190612f14565b815260200190815260200160002060009054906101000a900473ffffffffffffffffffffffffffffffffffffffff168660405161084d929190612b0d565b60405180910390a15050505050565b60056020528160005260406000206020528060005260406000206000915091509054906101000a900460ff1681565b600660205281600052604060002081815481106108a757600080fd5b90600052602060002001600091509150505481565b6108c46123d8565b73ffffffffffffffffffffffffffffffffffffffff166108e2610c7d565b73ffffffffffffffffffffffffffffffffffffffff1614610938576040517f08c379a000000000000000000000000000000000000000000000000000000000815260040161092f90612d94565b60405180910390fd5b600073ffffffffffffffffffffffffffffffffffffffff1660008054906101000a900473ffffffffffffffffffffffffffffffffffffffff1673ffffffffffffffffffffffffffffffffffffffff167f8be0079c531659141344cd1fd0a4f28419497f9722a3daafe3b4186f6b6457e060405160405180910390a360008060006101000a81548173ffffffffffffffffffffffffffffffffffffffff021916908373ffffffffffffffffffffffffffffffffffffffff160217905550565b6109fe6123d8565b73ffffffffffffffffffffffffffffffffffffffff16610a1c610c7d565b73ffffffffffffffffffffffffffffffffffffffff1614610a72576040517f08c379a0000000000000000000000000000000000000000000000000000000008152600401610a6990612d94565b60405180910390fd5b80600160006101000a81548173ffffffffffffffffffffffffffffffffffffffff021916908373ffffffffffffffffffffffffffffffffffffffff16021790555050565b6002602052806000526040600020600091509050806000018054610ad990613045565b80601f0160208091040260200160405190810160405280929190818152602001828054610b0590613045565b8015610b525780601f10610b2757610100808354040283529160200191610b52565b820191906000526020600020905b815481529060010190602001808311610b3557829003601f168201915b5050505050908060010160009054906101000a900473ffffffffffffffffffffffffffffffffffffffff16908060020160009054906101000a900473ffffffffffffffffffffffffffffffffffffffff16908060020160149054906101000a900460ff16908060030154908060040154908060050160009054906101000a900460ff169080600601549080600801549080600a015490508a565b6000610c048484610bff8560ff16611c16565b611dc3565b90509392505050565b600060026000838152602001908152602001600020600801549050919050565b600060026000838152602001908152602001600020600a01549050919050565b60046020528060005260406000206000915090505481565b60076020528060005260406000206000915090505481565b60008060009054906101000a900473ffffffffffffffffffffffffffffffffffffffff16905090565b60008073ffffffffffffffffffffffffffffffffffffffff16600260006007600086815260200190815260200160002054815260200190815260200160002060010160009054906101000a900473ffffffffffffffffffffffffffffffffffffffff1673ffffffffffffffffffffffffffffffffffffffff161415610d60576040517f08c379a0000000000000000000000000000000000000000000000000000000008152600401610d5790612c94565b60405180910390fd5b60076000838152602001908152602001600020549050919050565b600060026000848152602001908152602001600020600701600083815260200190815260200160002054905092915050565b60095481565b600060026000848152602001908152602001600020600901600083815260200190815260200160002060009054906101000a900473ffffffffffffffffffffffffffffffffffffffff16905092915050565b600160009054906101000a900473ffffffffffffffffffffffffffffffffffffffff1673ffffffffffffffffffffffffffffffffffffffff163373ffffffffffffffffffffffffffffffffffffffff1614610e95576040517f08c379a0000000000000000000000000000000000000000000000000000000008152600401610e8c90612cd4565b60405180910390fd5b8060026000848152602001908152602001600020600401819055505050565b60006002600060076000858152602001908152602001600020548152602001908152602001600020600401549050919050565b610eef6123d8565b73ffffffffffffffffffffffffffffffffffffffff16610f0d610c7d565b73ffffffffffffffffffffffffffffffffffffffff1614610f63576040517f08c379a0000000000000000000000000000000000000000000000000000000008152600401610f5a90612d94565b60405180910390fd5b600073ffffffffffffffffffffffffffffffffffffffff168173ffffffffffffffffffffffffffffffffffffffff161415610fd3576040517f08c379a0000000000000000000000000000000000000000000000000000000008152600401610fca90612cf4565b60405180910390fd5b8073ffffffffffffffffffffffffffffffffffffffff1660008054906101000a900473ffffffffffffffffffffffffffffffffffffffff1673ffffffffffffffffffffffffffffffffffffffff167f8be0079c531659141344cd1fd0a4f28419497f9722a3daafe3b4186f6b6457e060405160405180910390a3806000806101000a81548173ffffffffffffffffffffffffffffffffffffffff021916908373ffffffffffffffffffffffffffffffffffffffff16021790555050565b60006110a885856110a38560ff16611c16565b611dc3565b9050600073ffffffffffffffffffffffffffffffffffffffff166002600083815260200190815260200160002060020160009054906101000a900473ffffffffffffffffffffffffffffffffffffffff1673ffffffffffffffffffffffffffffffffffffffff161461114f576040517f08c379a000000000000000000000000000000000000000000000000000000000815260040161114690612d54565b60405180910390fd5b600080875114611667575b8651811015611666576000600760008984815181106111a2577f4e487b7100000000000000000000000000000000000000000000000000000000600052603260045260246000fd5b60200260200101518152602001908152602001600020549050600073ffffffffffffffffffffffffffffffffffffffff166002600083815260200190815260200160002060020160009054906101000a900473ffffffffffffffffffffffffffffffffffffffff1673ffffffffffffffffffffffffffffffffffffffff161415611261576040517f08c379a000000000000000000000000000000000000000000000000000000000815260040161125890612db4565b60405180910390fd5b600560006002600084815260200190815260200160002060020160149054906101000a900460ff1660048111156112c1577f4e487b7100000000000000000000000000000000000000000000000000000000600052602160045260246000fd5b60048111156112f9577f4e487b7100000000000000000000000000000000000000000000000000000000600052602160045260246000fd5b8152602001908152602001600020600082815260200190815260200160002060009054906101000a900460ff1615611366576040517f08c379a000000000000000000000000000000000000000000000000000000000815260040161135d90612cb4565b60405180910390fd5b6001600560006002600085815260200190815260200160002060020160149054906101000a900460ff1660048111156113c8577f4e487b7100000000000000000000000000000000000000000000000000000000600052602160045260246000fd5b6004811115611400577f4e487b7100000000000000000000000000000000000000000000000000000000600052602160045260246000fd5b8152602001908152602001600020600083815260200190815260200160002060006101000a81548160ff021916908315150217905550600660006002600084815260200190815260200160002060020160149054906101000a900460ff166004811115611496577f4e487b7100000000000000000000000000000000000000000000000000000000600052602160045260246000fd5b60048111156114ce577f4e487b7100000000000000000000000000000000000000000000000000000000600052602160045260246000fd5b8152602001908152602001600020600860008381526020019081526020016000205490806001815401808255809150506001900390600052602060002001600090919091909150556001600460006002600085815260200190815260200160002060020160149054906101000a900460ff166004811115611578577f4e487b7100000000000000000000000000000000000000000000000000000000600052602160045260246000fd5b60048111156115b0577f4e487b7100000000000000000000000000000000000000000000000000000000600052602160045260246000fd5b815260200190815260200160002060008282546115cd9190612f14565b925050819055508060026000858152602001908152602001600020600701600084815260200190815260200160002081905550856003600083815260200190815260200160002060006101000a81548173ffffffffffffffffffffffffffffffffffffffff021916908373ffffffffffffffffffffffffffffffffffffffff16021790555050808061165e906130a8565b91505061115a565b5b856002600084815260200190815260200160002060000190805190602001906116919291906123e0565b50846002600084815260200190815260200160002060010160006101000a81548173ffffffffffffffffffffffffffffffffffffffff021916908373ffffffffffffffffffffffffffffffffffffffff160217905550336002600084815260200190815260200160002060020160006101000a81548173ffffffffffffffffffffffffffffffffffffffff021916908373ffffffffffffffffffffffffffffffffffffffff1602179055504260026000848152602001908152602001600020600301819055508260ff166004811115611793577f4e487b7100000000000000000000000000000000000000000000000000000000600052602160045260246000fd5b6002600084815260200190815260200160002060020160146101000a81548160ff021916908360048111156117f1577f4e487b7100000000000000000000000000000000000000000000000000000000600052602160045260246000fd5b02179055508860026000848152602001908152602001600020600401819055508360ff16600381111561184d577f4e487b7100000000000000000000000000000000000000000000000000000000600052602160045260246000fd5b6002600084815260200190815260200160002060050160006101000a81548160ff021916908360038111156118ab577f4e487b7100000000000000000000000000000000000000000000000000000000600052602160045260246000fd5b0217905550876002600084815260200190815260200160002060060181905550846002600084815260200190815260200160002060090160006001815260200190815260200160002060006101000a81548173ffffffffffffffffffffffffffffffffffffffff021916908373ffffffffffffffffffffffffffffffffffffffff160217905550600160026000848152602001908152602001600020600a01819055508060026000848152602001908152602001600020600801819055506009600081548092919061197c906130a8565b9190505550816007600060095481526020019081526020016000208190555060095460086000848152602001908152602001600020819055506001600460008560ff1660048111156119f7577f4e487b7100000000000000000000000000000000000000000000000000000000600052602160045260246000fd5b6004811115611a2f577f4e487b7100000000000000000000000000000000000000000000000000000000600052602160045260246000fd5b6004811115611a67577f4e487b7100000000000000000000000000000000000000000000000000000000600052602160045260246000fd5b81526020019081526020016000206000828254611a849190612e8d565b925050819055506000600560008560ff166004811115611acd577f4e487b7100000000000000000000000000000000000000000000000000000000600052602160045260246000fd5b6004811115611b05577f4e487b7100000000000000000000000000000000000000000000000000000000600052602160045260246000fd5b6004811115611b3d577f4e487b7100000000000000000000000000000000000000000000000000000000600052602160045260246000fd5b8152602001908152602001600020600084815260200190815260200160002060006101000a81548160ff021916908315150217905550846003600084815260200190815260200160002060006101000a81548173ffffffffffffffffffffffffffffffffffffffff021916908373ffffffffffffffffffffffffffffffffffffffff1602179055507f87877371cc74fe85dcefcc969e9e25db42066d9e6f58b057ebc771175f0f05ce828a8a898989898e51604051611c03989796959493929190612b6c565b60405180910390a1505050505050505050565b60606000821415611c5e576040518060400160405280600181526020017f30000000000000000000000000000000000000000000000000000000000000008152509050611dbe565b600082905060005b60008214611c90578080611c79906130a8565b915050600a82611c899190612ee3565b9150611c66565b60008167ffffffffffffffff811115611cd2577f4e487b7100000000000000000000000000000000000000000000000000000000600052604160045260246000fd5b6040519080825280601f01601f191660200182016040528015611d045781602001600182028036833780820191505090505b5090505b60008514611db757600182611d1d9190612f14565b9150600a85611d2c91906130f1565b6030611d389190612e8d565b60f81b818381518110611d74577f4e487b7100000000000000000000000000000000000000000000000000000000600052603260045260246000fd5b60200101907effffffffffffffffffffffffffffffffffffffffffffffffffffffffffffff1916908160001a905350600a85611db09190612ee3565b9450611d08565b8093505050505b919050565b60008084905060008460601b9050600084905060008151601460ff168551611deb9190612e8d565b611df59190612e8d565b67ffffffffffffffff811115611e34577f4e487b7100000000000000000000000000000000000000000000000000000000600052604160045260246000fd5b6040519080825280601f01601f191660200182016040528015611e665781602001600182028036833780820191505090505b50905060008190506000805b8651811015611f4657868181518110611eb4577f4e487b7100000000000000000000000000000000000000000000000000000000600052603260045260246000fd5b602001015160f81c60f81b838380611ecb906130a8565b945081518110611f04577f4e487b7100000000000000000000000000000000000000000000000000000000600052603260045260246000fd5b60200101907effffffffffffffffffffffffffffffffffffffffffffffffffffffffffffff1916908160001a9053508080611f3e906130a8565b915050611e72565b600090505b601460ff1681101561201b57858160148110611f90577f4e487b7100000000000000000000000000000000000000000000000000000000600052603260045260246000fd5b1a60f81b838380611fa0906130a8565b945081518110611fd9577f4e487b7100000000000000000000000000000000000000000000000000000000600052603260045260246000fd5b60200101907effffffffffffffffffffffffffffffffffffffffffffffffffffffffffffff1916908160001a9053508080612013906130a8565b915050611f4b565b600090505b84518110156120f457848181518110612062577f4e487b7100000000000000000000000000000000000000000000000000000000600052603260045260246000fd5b602001015160f81c60f81b838380612079906130a8565b9450815181106120b2577f4e487b7100000000000000000000000000000000000000000000000000000000600052603260045260246000fd5b60200101907effffffffffffffffffffffffffffffffffffffffffffffffffffffffffffff1916908160001a90535080806120ec906130a8565b915050612020565b82805190602001209750505050505050509392505050565b8173ffffffffffffffffffffffffffffffffffffffff166003600083815260200190815260200160002060009054906101000a900473ffffffffffffffffffffffffffffffffffffffff1673ffffffffffffffffffffffffffffffffffffffff16146121ad576040517f08c379a00000000000000000000000000000000000000000000000000000000081526004016121a490612d14565b60405180910390fd5b8273ffffffffffffffffffffffffffffffffffffffff166003600083815260200190815260200160002060009054906101000a900473ffffffffffffffffffffffffffffffffffffffff1673ffffffffffffffffffffffffffffffffffffffff16141561224f576040517f08c379a000000000000000000000000000000000000000000000000000000000815260040161224690612d34565b60405180910390fd5b826003600083815260200190815260200160002060006101000a81548173ffffffffffffffffffffffffffffffffffffffff021916908373ffffffffffffffffffffffffffffffffffffffff1602179055508260026000838152602001908152602001600020600901600060026000858152602001908152602001600020600a0160008154809291906122e1906130a8565b91905055815260200190815260200160002060006101000a81548173ffffffffffffffffffffffffffffffffffffffff021916908373ffffffffffffffffffffffffffffffffffffffff1602179055507f566e457b3f7a29d395daa19f3c290756c451b69c954a3efd536428a6c0ad27bc600260008381526020019081526020016000206009016000600160026000868152602001908152602001600020600a015461238d9190612f14565b815260200190815260200160002060009054906101000a900473ffffffffffffffffffffffffffffffffffffffff16846040516123cb929190612b0d565b60405180910390a1505050565b600033905090565b8280546123ec90613045565b90600052602060002090601f01602090048101928261240e5760008555612455565b82601f1061242757805160ff1916838001178555612455565b82800160010185558215612455579182015b82811115612454578251825591602001919060010190612439565b5b5090506124629190612466565b5090565b5b8082111561247f576000816000905550600101612467565b5090565b600061249661249184612e14565b612def565b905080838252602082019050828560208602820111156124b557600080fd5b60005b858110156124e557816124cb88826125c0565b8452602084019350602083019250506001810190506124b8565b5050509392505050565b60006125026124fd84612e40565b612def565b90508281526020810184848401111561251a57600080fd5b612525848285613003565b509392505050565b60008135905061253c81613478565b92915050565b600082601f83011261255357600080fd5b8135612563848260208601612483565b91505092915050565b60008135905061257b8161348f565b92915050565b600081359050612590816134a6565b92915050565b600082601f8301126125a757600080fd5b81356125b78482602086016124ef565b91505092915050565b6000813590506125cf816134b6565b92915050565b6000813590506125e4816134cd565b92915050565b6000602082840312156125fc57600080fd5b600061260a8482850161252d565b91505092915050565b6000806000806080858703121561262957600080fd5b60006126378782880161252d565b945050602085013567ffffffffffffffff81111561265457600080fd5b61266087828801612596565b93505060406126718782880161252d565b9250506060612682878288016125d5565b91505092959194509250565b6000602082840312156126a057600080fd5b60006126ae8482850161256c565b91505092915050565b600080604083850312156126ca57600080fd5b60006126d88582860161256c565b92505060206126e9858286016125c0565b9150509250929050565b60006020828403121561270557600080fd5b600061271384828501612581565b91505092915050565b6000806040838503121561272f57600080fd5b600061273d85828601612581565b925050602061274e8582860161256c565b9150509250929050565b6000806040838503121561276b57600080fd5b600061277985828601612581565b925050602061278a858286016125c0565b9150509250929050565b6000806000606084860312156127a957600080fd5b600084013567ffffffffffffffff8111156127c357600080fd5b6127cf86828701612596565b93505060206127e08682870161252d565b92505060406127f1868287016125d5565b9150509250925092565b60006020828403121561280d57600080fd5b600061281b848285016125c0565b91505092915050565b600080600080600080600060e0888a03121561283f57600080fd5b600061284d8a828b016125c0565b975050602061285e8a828b016125c0565b965050604088013567ffffffffffffffff81111561287b57600080fd5b6128878a828b01612542565b955050606088013567ffffffffffffffff8111156128a457600080fd5b6128b08a828b01612596565b94505060806128c18a828b0161252d565b93505060a06128d28a828b016125d5565b92505060c06128e38a828b016125d5565b91505092959891949750929550565b6128fb81612f48565b82525050565b61290a81612f5a565b82525050565b61291981612f66565b82525050565b61292881612fcd565b82525050565b61293781612fdf565b82525050565b600061294882612e71565b6129528185612e7c565b9350612962818560208601613012565b61296b8161320d565b840191505092915050565b6000612983601783612e7c565b915061298e8261321e565b602082019050919050565b60006129a6601483612e7c565b91506129b182613247565b602082019050919050565b60006129c9603983612e7c565b91506129d482613270565b604082019050919050565b60006129ec602683612e7c565b91506129f7826132bf565b604082019050919050565b6000612a0f602183612e7c565b9150612a1a8261330e565b604082019050919050565b6000612a32602283612e7c565b9150612a3d8261335d565b604082019050919050565b6000612a55601683612e7c565b9150612a60826133ac565b602082019050919050565b6000612a78601583612e7c565b9150612a83826133d5565b602082019050919050565b6000612a9b602083612e7c565b9150612aa6826133fe565b602082019050919050565b6000612abe601183612e7c565b9150612ac982613427565b602082019050919050565b612add81612fb6565b82525050565b612aec81612ff1565b82525050565b6000602082019050612b0760008301846128f2565b92915050565b6000604082019050612b2260008301856128f2565b612b2f60208301846128f2565b9392505050565b6000602082019050612b4b6000830184612901565b92915050565b6000602082019050612b666000830184612910565b92915050565b600061010082019050612b82600083018b612910565b612b8f602083018a612ad4565b612b9c6040830189612ad4565b8181036060830152612bae818861293d565b9050612bbd60808301876128f2565b612bca60a0830186612ae3565b612bd760c0830185612ae3565b612be460e0830184612ad4565b9998505050505050505050565b6000610140820190508181036000830152612c0c818d61293d565b9050612c1b602083018c6128f2565b612c28604083018b6128f2565b612c35606083018a61292e565b612c426080830189612ad4565b612c4f60a0830188612ad4565b612c5c60c083018761291f565b612c6960e0830186612ad4565b612c77610100830185612ad4565b612c85610120830184612ad4565b9b9a5050505050505050505050565b60006020820190508181036000830152612cad81612976565b9050919050565b60006020820190508181036000830152612ccd81612999565b9050919050565b60006020820190508181036000830152612ced816129bc565b9050919050565b60006020820190508181036000830152612d0d816129df565b9050919050565b60006020820190508181036000830152612d2d81612a02565b9050919050565b60006020820190508181036000830152612d4d81612a25565b9050919050565b60006020820190508181036000830152612d6d81612a48565b9050919050565b60006020820190508181036000830152612d8d81612a6b565b9050919050565b60006020820190508181036000830152612dad81612a8e565b9050919050565b60006020820190508181036000830152612dcd81612ab1565b9050919050565b6000602082019050612de96000830184612ad4565b92915050565b6000612df9612e0a565b9050612e058282613077565b919050565b6000604051905090565b600067ffffffffffffffff821115612e2f57612e2e6131de565b5b602082029050602081019050919050565b600067ffffffffffffffff821115612e5b57612e5a6131de565b5b612e648261320d565b9050602081019050919050565b600081519050919050565b600082825260208201905092915050565b6000612e9882612fb6565b9150612ea383612fb6565b9250827fffffffffffffffffffffffffffffffffffffffffffffffffffffffffffffffff03821115612ed857612ed7613122565b5b828201905092915050565b6000612eee82612fb6565b9150612ef983612fb6565b925082612f0957612f08613151565b5b828204905092915050565b6000612f1f82612fb6565b9150612f2a83612fb6565b925082821015612f3d57612f3c613122565b5b828203905092915050565b6000612f5382612f96565b9050919050565b60008115159050919050565b6000819050919050565b6000819050612f7e82613450565b919050565b6000819050612f9182613464565b919050565b600073ffffffffffffffffffffffffffffffffffffffff82169050919050565b6000819050919050565b600060ff82169050919050565b6000612fd882612f70565b9050919050565b6000612fea82612f83565b9050919050565b6000612ffc82612fc0565b9050919050565b82818337600083830152505050565b60005b83811015613030578082015181840152602081019050613015565b8381111561303f576000848401525b50505050565b6000600282049050600182168061305d57607f821691505b60208210811415613071576130706131af565b5b50919050565b6130808261320d565b810181811067ffffffffffffffff8211171561309f5761309e6131de565b5b80604052505050565b60006130b382612fb6565b91507fffffffffffffffffffffffffffffffffffffffffffffffffffffffffffffffff8214156130e6576130e5613122565b5b600182019050919050565b60006130fc82612fb6565b915061310783612fb6565b92508261311757613116613151565b5b828206905092915050565b7f4e487b7100000000000000000000000000000000000000000000000000000000600052601160045260246000fd5b7f4e487b7100000000000000000000000000000000000000000000000000000000600052601260045260246000fd5b7f4e487b7100000000000000000000000000000000000000000000000000000000600052602160045260246000fd5b7f4e487b7100000000000000000000000000000000000000000000000000000000600052602260045260246000fd5b7f4e487b7100000000000000000000000000000000000000000000000000000000600052604160045260246000fd5b6000601f19601f8301169050919050565b7f50726f6475637420446f6573206e6f7420657869737473000000000000000000600082015250565b7f506172747320616c726561647920696e20757365000000000000000000000000600082015250565b7f4f6e6c79205472616e736974204d616e616765722063616e206368616e67652060008201527f746865206c6f636174696f6e206f6620612070726f6475637400000000000000602082015250565b7f4f776e61626c653a206e6577206f776e657220697320746865207a65726f206160008201527f6464726573730000000000000000000000000000000000000000000000000000602082015250565b7f596f7520617265206e6f7420746865204f776e6572206f66207468652070617260008201527f7400000000000000000000000000000000000000000000000000000000000000602082015250565b7f4e6577206f776e657220697320616c72656164792063757272656e74206f776e60008201527f6572000000000000000000000000000000000000000000000000000000000000602082015250565b7f50726f6475637420416c72656164792045786973747300000000000000000000600082015250565b7f596f7520617265206e6f7420746865204f776e65720000000000000000000000600082015250565b7f4f776e61626c653a2063616c6c6572206973206e6f7420746865206f776e6572600082015250565b7f5061727420646f206e6f74206578697374000000000000000000000000000000600082015250565b6004811061346157613460613180565b5b50565b6005811061347557613474613180565b5b50565b61348181612f48565b811461348c57600080fd5b50565b61349881612f66565b81146134a357600080fd5b50565b600581106134b357600080fd5b50565b6134bf81612fb6565b81146134ca57600080fd5b50565b6134d681612fc0565b81146134e157600080fd5b5056fea26469706673582212209388479db73c024dd4a3933c559255d8f5d7f1937449248835ca9dcb7d69efee64736f6c63430008030033",
  "immutableReferences": {},
  "source": "// SPDX-License-Identifier: MIT\r\n\r\npragma solidity ^0.8.0;\r\n\r\nimport '@openzeppelin/contracts/utils/Strings.sol';\r\nimport '@openzeppelin/contracts/access/Ownable.sol';\r\n\r\ncontract ProductManagement is Ownable{\r\n    \r\n    using Strings for *;\r\n    \r\n    enum Product_Type{CAR,WHEEL,ENGINE,CHASIS,GEARS}\r\n    enum Grade{A,B,C,D}\r\n    \r\n    struct Product{\r\n        string serial;\r\n        address brand;\r\n        address manufacturer;\r\n        Product_Type product_type;\r\n        uint manufacture_date; \r\n        uint location;\r\n        Grade grade;\r\n        uint price;\r\n        mapping(uint=>bytes32) parts;\r\n        uint part_counter;\r\n        mapping(uint=>address) owners;\r\n        uint owner_counter;\r\n        }\r\n        \r\n    address transitManager;\r\n        \r\n    mapping(bytes32=>Product) public products;\r\n    mapping(bytes32=>address) public product_owners;\r\n    \r\n    mapping(Product_Type=>uint) public product_to_stock;\r\n    mapping(Product_Type=>mapping(bytes32=>bool)) public product_to_product_id_to_is_used;\r\n    mapping(Product_Type=>uint[]) public product_already_used;\r\n    \r\n    mapping(uint=>bytes32) public id_to_hash;\r\n    mapping(bytes32=>uint) public hash_to_id;\r\n    uint public hash_counter;\r\n    \r\n    event ProductCreated(bytes32 uuid, uint _location, uint _price, string _serial, address _brand, uint _grade, uint _product_type, uint total_parts);\r\n    event ProductOwnershipTransfered(address prev_owner, address new_owner);\r\n    \r\n    // Functional Declarations\r\n    \r\n    function createProduct(\r\n            uint _location,\r\n            uint _price ,\r\n            uint[] memory _parts,\r\n            string memory _serial,\r\n            address _brand,\r\n            uint8 _grade,\r\n            uint8 _product_type\r\n            ) public {\r\n        bytes32 uuid = hash(_serial, _brand, _product_type.toString());\r\n        \r\n        require(products[uuid].manufacturer == address(0),\"Product Already Exists\");\r\n        \r\n        uint i;\r\n        if(_parts.length!=0){\r\n            for(i; i<_parts.length;i++){\r\n                bytes32 h = id_to_hash[_parts[i]];\r\n                require(products[h].manufacturer != address(0), \"Part do not exist\");\r\n                require(!product_to_product_id_to_is_used[products[h].product_type][h], \"Parts already in use\");\r\n                product_to_product_id_to_is_used[ products[h].product_type ][ h ] = true;\r\n                product_already_used[products[ h ].product_type].push( hash_to_id[h] );\r\n                product_to_stock[ products[ h ].product_type ] -= 1;\r\n                products[uuid].parts[ i ] = h;\r\n                product_owners[ h ] = _brand;\r\n            }\r\n        }\r\n        \r\n        products[uuid].serial = _serial;\r\n        products[uuid].brand = _brand;\r\n        products[uuid].manufacturer = msg.sender;\r\n        products[uuid].manufacture_date = block.timestamp;\r\n        products[uuid].product_type = Product_Type(_product_type);\r\n        products[uuid].location = _location;\r\n        products[uuid].grade = Grade(_grade);\r\n        products[uuid].price = _price;\r\n        products[uuid].owners[1] = _brand;\r\n        products[uuid].owner_counter = 1;\r\n        products[uuid].part_counter = i;\r\n        \r\n        \r\n        hash_counter++;\r\n        id_to_hash[hash_counter] = uuid;\r\n        hash_to_id[uuid] = hash_counter;\r\n        product_to_stock[Product_Type(_product_type)] += 1;\r\n        product_to_product_id_to_is_used[Product_Type(_product_type)][uuid] = false;\r\n        \r\n        product_owners[uuid] = _brand;\r\n        \r\n        emit ProductCreated(uuid, _location, _price, _serial, _brand, _grade, _product_type, _parts.length);\r\n    }\r\n    \r\n    function transferOwnership(address _new_owner,string memory _serial,address _brand, uint8 _product_type) public {\r\n        bytes32 uuid = hash(_serial, _brand, _product_type.toString());\r\n        require(product_owners[uuid] == msg.sender, \"You are not the Owner\");\r\n        require(product_owners[uuid] != _new_owner, \"New owner is already current owner\");\r\n        product_owners[uuid] = _new_owner;\r\n        products[ uuid ].owners[ products[uuid].owner_counter++ ] = _new_owner;\r\n        for(uint i=0; i < products[uuid].part_counter; i++ ){\r\n            _transferOwnershipByHash(_new_owner, msg.sender, products[uuid].parts[i]);\r\n        }\r\n        emit ProductOwnershipTransfered( products[uuid].owners[products[uuid].owner_counter-1] , _new_owner );\r\n    }\r\n    \r\n    function _transferOwnershipByHash(address _new_owner, address _owner, bytes32 _uuid) private {\r\n        require(product_owners[_uuid] == _owner, \"You are not the Owner of the part\");\r\n        require(product_owners[_uuid] != _new_owner, \"New owner is already current owner\");\r\n        product_owners[_uuid] = _new_owner;\r\n        products[ _uuid ].owners[ products[_uuid].owner_counter++ ] = _new_owner;\r\n        emit ProductOwnershipTransfered( products[_uuid].owners[products[_uuid].owner_counter-1] , _new_owner );\r\n    }\r\n    \r\n    function setTransitManager(address _transit_manager) public onlyOwner{\r\n        transitManager=_transit_manager;\r\n    }\r\n    \r\n    function getProductLocation(uint _id) public view returns(uint location_){\r\n        return products[id_to_hash[_id]].location;\r\n    }\r\n    \r\n    function setProductLocation(bytes32 _hash, uint _newLocation) public {\r\n        require(msg.sender==transitManager,\"Only Transit Manager can change the location of a product\");\r\n        products[_hash].location=_newLocation;\r\n    }\r\n    \r\n    function getProductHash(uint _id) public view returns(bytes32 hash_){\r\n        require(products[id_to_hash[_id]].brand!=address(0), \"Product Does not exists\");\r\n        return id_to_hash[_id];\r\n    }\r\n    \r\n    function getPartsHash(bytes32 _uuid, uint _part_id) public view returns(bytes32 part_uuid_){\r\n        return products[_uuid].parts[_part_id];\r\n    }\r\n    \r\n    function getTotalPartsCount(bytes32 _uuid) public view returns(uint total_parts_){\r\n        return products[_uuid].part_counter;\r\n    }\r\n    \r\n    function getProductOwnerAtIndex(bytes32 _uuid, uint _owner_id) public view returns(address owner_){\r\n        return products[_uuid].owners[_owner_id];\r\n    }\r\n    \r\n    function getTotalOwnerCount(bytes32 _uuid) public view returns(uint total_owners_){\r\n        return products[_uuid].owner_counter;\r\n    }\r\n    \r\n    function getProductHash(string memory _serial,address _brand, uint8 _product_type) public pure returns(bytes32 hash_){\r\n        return hash( _serial, _brand, _product_type.toString());\r\n    }\r\n    \r\n    function hash(string memory s1, address s2, string memory s3) private pure returns (bytes32){\r\n        //First, get all values as bytes\r\n        bytes memory b_s1 = bytes(s1);\r\n        bytes20 b_s2 = bytes20(s2);\r\n        bytes memory b_s3 = bytes(s3);\r\n\r\n        //Then calculate and reserve a space for the full string\r\n        string memory s_full = new string(b_s1.length + b_s2.length + b_s3.length);\r\n        bytes memory b_full = bytes(s_full);\r\n        uint j = 0;\r\n        uint i;\r\n        for(i = 0; i < b_s1.length; i++){\r\n            b_full[j++] = b_s1[i];\r\n        }\r\n        for(i = 0; i < b_s2.length; i++){\r\n            b_full[j++] = b_s2[i];\r\n        }\r\n        for(i = 0; i < b_s3.length; i++){\r\n            b_full[j++] = b_s3[i];\r\n        }\r\n\r\n        //Hash the result and return\r\n        return keccak256(b_full);\r\n    }\r\n    \r\n}",
  "sourcePath": "E:/Projects/BlockchainBootcamp/supplychain-traceability/contracts/ProductManagement.sol",
  "compiler": {
    "name": "solc",
    "version": "0.8.3+commit.8d00100c.Emscripten.clang"
  },
  "schemaVersion": "3.3.4",
  "updatedAt": "2021-04-10T16:10:18.461Z",
  "networkType": "ethereum",
  "devdoc": {
    "kind": "dev",
    "methods": {
      "owner()": {
        "details": "Returns the address of the current owner."
      },
      "renounceOwnership()": {
        "details": "Leaves the contract without owner. It will not be possible to call `onlyOwner` functions anymore. Can only be called by the current owner. NOTE: Renouncing ownership will leave the contract without an owner, thereby removing any functionality that is only available to the owner."
      },
      "transferOwnership(address)": {
        "details": "Transfers ownership of the contract to a new account (`newOwner`). Can only be called by the current owner."
      }
    },
    "version": 1
  },
  "userdoc": {
    "kind": "user",
    "methods": {},
    "version": 1
  }
}