{
  "contractName": "TransitManagement",
  "abi": [
    {
      "inputs": [
        {
          "internalType": "address",
          "name": "_address",
          "type": "address"
        }
      ],
      "stateMutability": "nonpayable",
      "type": "constructor"
    },
    {
      "inputs": [],
      "name": "consignment_counter",
      "outputs": [
        {
          "internalType": "uint256",
          "name": "",
          "type": "uint256"
        }
      ],
      "stateMutability": "view",
      "type": "function",
      "constant": true
    },
    {
      "inputs": [
        {
          "internalType": "uint256",
          "name": "",
          "type": "uint256"
        }
      ],
      "name": "consignments",
      "outputs": [
        {
          "internalType": "uint256",
          "name": "consignment_id",
          "type": "uint256"
        },
        {
          "internalType": "address",
          "name": "sender",
          "type": "address"
        },
        {
          "internalType": "address",
          "name": "receiver",
          "type": "address"
        },
        {
          "internalType": "bytes32",
          "name": "product_hash",
          "type": "bytes32"
        },
        {
          "internalType": "uint256",
          "name": "from_hub",
          "type": "uint256"
        },
        {
          "internalType": "uint256",
          "name": "to_hub",
          "type": "uint256"
        },
        {
          "internalType": "uint256",
          "name": "next_hub",
          "type": "uint256"
        },
        {
          "internalType": "uint256",
          "name": "registered_date",
          "type": "uint256"
        },
        {
          "internalType": "uint256",
          "name": "expected_arrival_date",
          "type": "uint256"
        },
        {
          "internalType": "uint256",
          "name": "dispatched_date",
          "type": "uint256"
        },
        {
          "internalType": "uint256",
          "name": "received_date",
          "type": "uint256"
        },
        {
          "internalType": "uint256",
          "name": "state",
          "type": "uint256"
        }
      ],
      "stateMutability": "view",
      "type": "function",
      "constant": true
    },
    {
      "inputs": [
        {
          "internalType": "uint256",
          "name": "",
          "type": "uint256"
        }
      ],
      "name": "hubs",
      "outputs": [
        {
          "internalType": "address",
          "name": "manager",
          "type": "address"
        },
        {
          "internalType": "uint256",
          "name": "location",
          "type": "uint256"
        },
        {
          "internalType": "string",
          "name": "name",
          "type": "string"
        }
      ],
      "stateMutability": "view",
      "type": "function",
      "constant": true
    },
    {
      "inputs": [
        {
          "internalType": "address",
          "name": "",
          "type": "address"
        }
      ],
      "name": "manager_to_hub",
      "outputs": [
        {
          "internalType": "uint256",
          "name": "",
          "type": "uint256"
        }
      ],
      "stateMutability": "view",
      "type": "function",
      "constant": true
    },
    {
      "inputs": [],
      "name": "products",
      "outputs": [
        {
          "internalType": "contract ProductManagement",
          "name": "",
          "type": "address"
        }
      ],
      "stateMutability": "view",
      "type": "function",
      "constant": true
    },
    {
      "inputs": [
        {
          "internalType": "address",
          "name": "",
          "type": "address"
        },
        {
          "internalType": "uint256",
          "name": "",
          "type": "uint256"
        }
      ],
      "name": "sender_consignments",
      "outputs": [
        {
          "internalType": "uint256",
          "name": "",
          "type": "uint256"
        }
      ],
      "stateMutability": "view",
      "type": "function",
      "constant": true
    },
    {
      "inputs": [
        {
          "internalType": "address",
          "name": "_receiver",
          "type": "address"
        },
        {
          "internalType": "uint256",
          "name": "_product",
          "type": "uint256"
        },
        {
          "internalType": "uint256",
          "name": "_from",
          "type": "uint256"
        },
        {
          "internalType": "uint256",
          "name": "_to",
          "type": "uint256"
        },
        {
          "internalType": "uint256",
          "name": "_expected_delivery",
          "type": "uint256"
        }
      ],
      "name": "registerConsignment",
      "outputs": [],
      "stateMutability": "nonpayable",
      "type": "function"
    },
    {
      "inputs": [
        {
          "internalType": "uint256",
          "name": "_location",
          "type": "uint256"
        },
        {
          "internalType": "string",
          "name": "_name",
          "type": "string"
        }
      ],
      "name": "registerHub",
      "outputs": [],
      "stateMutability": "nonpayable",
      "type": "function"
    },
    {
      "inputs": [
        {
          "internalType": "uint256",
          "name": "id",
          "type": "uint256"
        }
      ],
      "name": "cancelConsignment",
      "outputs": [],
      "stateMutability": "nonpayable",
      "type": "function"
    },
    {
      "inputs": [
        {
          "internalType": "uint256",
          "name": "_consignment_id",
          "type": "uint256"
        },
        {
          "internalType": "uint256",
          "name": "_next_hub",
          "type": "uint256"
        }
      ],
      "name": "dispatch",
      "outputs": [],
      "stateMutability": "nonpayable",
      "type": "function"
    },
    {
      "inputs": [
        {
          "internalType": "uint256",
          "name": "_consignment_id",
          "type": "uint256"
        }
      ],
      "name": "received",
      "outputs": [],
      "stateMutability": "nonpayable",
      "type": "function"
    },
    {
      "inputs": [
        {
          "internalType": "uint256",
          "name": "_consignment_id",
          "type": "uint256"
        }
      ],
      "name": "delivered",
      "outputs": [],
      "stateMutability": "nonpayable",
      "type": "function"
    },
    {
      "inputs": [],
      "name": "getMyConsignments",
      "outputs": [
        {
          "internalType": "uint256[]",
          "name": "",
          "type": "uint256[]"
        }
      ],
      "stateMutability": "view",
      "type": "function",
      "constant": true
    },
    {
      "inputs": [
        {
          "internalType": "uint256",
          "name": "_id",
          "type": "uint256"
        }
      ],
      "name": "getConsignmentHoped",
      "outputs": [
        {
          "internalType": "uint256[]",
          "name": "hoped",
          "type": "uint256[]"
        },
        {
          "internalType": "uint256[]",
          "name": "_received",
          "type": "uint256[]"
        },
        {
          "internalType": "uint256[]",
          "name": "dispatched",
          "type": "uint256[]"
        },
        {
          "internalType": "uint256[]",
          "name": "waiting",
          "type": "uint256[]"
        }
      ],
      "stateMutability": "view",
      "type": "function",
      "constant": true
    },
    {
      "inputs": [
        {
          "internalType": "uint256",
          "name": "_id",
          "type": "uint256"
        }
      ],
      "name": "getHubHoped",
      "outputs": [
        {
          "internalType": "uint256[]",
          "name": "",
          "type": "uint256[]"
        }
      ],
      "stateMutability": "view",
      "type": "function",
      "constant": true
    }
  ],
  "bytecode": "0x60806040523480156200001157600080fd5b5060405162002b3a38038062002b3a833981810160405281019062000037919062000096565b80600260006101000a81548173ffffffffffffffffffffffffffffffffffffffff021916908373ffffffffffffffffffffffffffffffffffffffff1602179055505062000110565b6000815190506200009081620000f6565b92915050565b600060208284031215620000a957600080fd5b6000620000b9848285016200007f565b91505092915050565b6000620000cf82620000d6565b9050919050565b600073ffffffffffffffffffffffffffffffffffffffff82169050919050565b6200010181620000c2565b81146200010d57600080fd5b50565b612a1a80620001206000396000f3fe608060405234801561001057600080fd5b50600436106100f55760003560e01c8063a95a54c411610097578063e1bdbe6411610066578063e1bdbe6414610290578063e4b70e5a146102c0578063e66f0a77146102f2578063f405bf741461030e576100f5565b8063a95a54c414610205578063afb1454f14610223578063c71e261f14610256578063e0209e6d14610274576100f5565b80634b5e4108116100d35780634b5e41081461017657806359a94973146101925780637244fe04146101ae578063a034af42146101e9576100f5565b80630fbf6730146100fa578063172657821461012a57806346c93fc014610146575b600080fd5b610114600480360381019061010f9190611de6565b61032c565b6040516101219190612181565b60405180910390f35b610144600480360381019061013f9190611d46565b610399565b005b610160600480360381019061015b9190611ce1565b6108e8565b60405161016d91906123a8565b60405180910390f35b610190600480360381019061018b9190611de6565b610900565b005b6101ac60048036038101906101a79190611e8c565b610aa5565b005b6101c860048036038101906101c39190611de6565b610fb7565b6040516101e09c9b9a999897969594939291906123c3565b60405180910390f35b61020360048036038101906101fe9190611e38565b611057565b005b61020d61122c565b60405161021a9190612181565b60405180910390f35b61023d60048036038101906102389190611de6565b6112c1565b60405161024d94939291906121a3565b60405180910390f35b61025e611476565b60405161026b919061222d565b60405180910390f35b61028e60048036038101906102899190611de6565b61149c565b005b6102aa60048036038101906102a59190611d0a565b611746565b6040516102b791906123a8565b60405180910390f35b6102da60048036038101906102d59190611de6565b611777565b6040516102e993929190612143565b60405180910390f35b61030c60048036038101906103079190611de6565b611849565b005b610316611b7c565b60405161032391906123a8565b60405180910390f35b6060600080838152602001908152602001600020600b0180548060200260200160405190810160405280929190818152602001828054801561038d57602002820191906000526020600020905b815481526020019060010190808311610379575b50505050509050919050565b828260006003600084815260200190815260200160002060010154141580156103d957506000600360008481526020019081526020016000206001015414155b610418576040517f08c379a000000000000000000000000000000000000000000000000000000000815260040161040f90612288565b60405180910390fd5b84848082141561045d576040517f08c379a000000000000000000000000000000000000000000000000000000000815260040161045490612308565b60405180910390fd5b6001600081548092919061047090612637565b919050555060015460008060015481526020019081526020016000206000018190555033600080600154815260200190815260200160002060010160006101000a81548173ffffffffffffffffffffffffffffffffffffffff021916908373ffffffffffffffffffffffffffffffffffffffff160217905550600260009054906101000a900473ffffffffffffffffffffffffffffffffffffffff1673ffffffffffffffffffffffffffffffffffffffff16639d58f0da896040518263ffffffff1660e01b815260040161054491906123a8565b60206040518083038186803b15801561055c57600080fd5b505afa158015610570573d6000803e3d6000fd5b505050506040513d601f19601f820116820180604052508101906105949190611dbd565b600080600154815260200190815260200160002060030181905550600260009054906101000a900473ffffffffffffffffffffffffffffffffffffffff1673ffffffffffffffffffffffffffffffffffffffff1663ec333e29896040518263ffffffff1660e01b815260040161060a91906123a8565b60206040518083038186803b15801561062257600080fd5b505afa158015610636573d6000803e3d6000fd5b505050506040513d601f19601f8201168201806040525081019061065a9190611e0f565b871461069b576040517f08c379a0000000000000000000000000000000000000000000000000000000008152600401610692906122e8565b60405180910390fd5b86600080600154815260200190815260200160002060040181905550856000806001548152602001908152602001600020600501819055504260008060015481526020019081526020016000206007018190555088600080600154815260200190815260200160002060020160006101000a81548173ffffffffffffffffffffffffffffffffffffffff021916908373ffffffffffffffffffffffffffffffffffffffff160217905550428511610787576040517f08c379a000000000000000000000000000000000000000000000000000000000815260040161077e906122c8565b60405180910390fd5b84600080600154815260200190815260200160002060080181905550600060058111156107dd577f4e487b7100000000000000000000000000000000000000000000000000000000600052602160045260246000fd5b6000806001548152602001908152602001600020600c01819055506000806001548152602001908152602001600020600b01879080600181540180825580915050600190039060005260206000200160009091909190915055600560003373ffffffffffffffffffffffffffffffffffffffff1673ffffffffffffffffffffffffffffffffffffffff1681526020019081526020016000206001549080600181540180825580915050600190039060005260206000200160009091909190915055600360008881526020019081526020016000206006016001549080600181540180825580915050600190039060005260206000200160009091909190915055505050505050505050565b60046020528060005260406000206000915090505481565b80600460003373ffffffffffffffffffffffffffffffffffffffff1673ffffffffffffffffffffffffffffffffffffffff168152602001908152602001600020546000808381526020019081526020016000206005015414610997576040517f08c379a000000000000000000000000000000000000000000000000000000000815260040161098e906122a8565b60405180910390fd5b6000600460003373ffffffffffffffffffffffffffffffffffffffff1673ffffffffffffffffffffffffffffffffffffffff16815260200190815260200160002054905060008060008581526020019081526020016000206006018190555042600080858152602001908152602001600020600a018190555060036005811115610a4a577f4e487b7100000000000000000000000000000000000000000000000000000000600052602160045260246000fd5b600080858152602001908152602001600020600c018190555060036000828152602001908152602001600020600401839080600181540180825580915050600190039060005260206000200160009091909190915055505050565b81600060036000600460003373ffffffffffffffffffffffffffffffffffffffff1673ffffffffffffffffffffffffffffffffffffffff168152602001908152602001600020548152602001908152602001600020600601805480602002602001604051908101604052809291908181526020018280548015610b4757602002820191906000526020600020905b815481526020019060010190808311610b33575b505050505090506000805b8251811015610bbb5783838281518110610b95577f4e487b7100000000000000000000000000000000000000000000000000000000600052603260045260246000fd5b60200260200101511415610ba857600191505b8080610bb390612637565b915050610b52565b5060018114610bff576040517f08c379a0000000000000000000000000000000000000000000000000000000008152600401610bf690612328565b60405180910390fd5b836000808781526020019081526020016000206006018190555060026005811115610c53577f4e487b7100000000000000000000000000000000000000000000000000000000600052602160045260246000fd5b600080878152602001908152602001600020600c01819055503373ffffffffffffffffffffffffffffffffffffffff166003600080600089815260200190815260200160002060040154815260200190815260200160002060000160009054906101000a900473ffffffffffffffffffffffffffffffffffffffff1673ffffffffffffffffffffffffffffffffffffffff161415610d8657426000808781526020019081526020016000206009018190555060036000600460003373ffffffffffffffffffffffffffffffffffffffff1673ffffffffffffffffffffffffffffffffffffffff168152602001908152602001600020548152602001908152602001600020600301859080600181540180825580915050600190039060005260206000200160009091909190915055610e03565b60036000600460003373ffffffffffffffffffffffffffffffffffffffff1673ffffffffffffffffffffffffffffffffffffffff1681526020019081526020016000205481526020019081526020016000206005018590806001815401808255809150506001900390600052602060002001600090919091909150555b600060036000600460003373ffffffffffffffffffffffffffffffffffffffff1673ffffffffffffffffffffffffffffffffffffffff168152602001908152602001600020548152602001908152602001600020600601805480602002602001604051908101604052809291908181526020018280548015610ea457602002820191906000526020600020905b815481526020019060010190808311610e90575b5050505050905060005b8151811015610fae5786828281518110610ef1577f4e487b7100000000000000000000000000000000000000000000000000000000600052603260045260246000fd5b60200260200101511415610f9b5760036000600460003373ffffffffffffffffffffffffffffffffffffffff1673ffffffffffffffffffffffffffffffffffffffff1681526020019081526020016000205481526020019081526020016000206006018181548110610f8c577f4e487b7100000000000000000000000000000000000000000000000000000000600052603260045260246000fd5b90600052602060002001600090555b8080610fa690612637565b915050610eae565b50505050505050565b60006020528060005260406000206000915090508060000154908060010160009054906101000a900473ffffffffffffffffffffffffffffffffffffffff16908060020160009054906101000a900473ffffffffffffffffffffffffffffffffffffffff169080600301549080600401549080600501549080600601549080600701549080600801549080600901549080600a01549080600c015490508c565b81600073ffffffffffffffffffffffffffffffffffffffff166003600083815260200190815260200160002060000160009054906101000a900473ffffffffffffffffffffffffffffffffffffffff1673ffffffffffffffffffffffffffffffffffffffff1614801561110957506000600460003373ffffffffffffffffffffffffffffffffffffffff1673ffffffffffffffffffffffffffffffffffffffff16815260200190815260200160002054145b611148576040517f08c379a000000000000000000000000000000000000000000000000000000000815260040161113f90612348565b60405180910390fd5b336003600085815260200190815260200160002060000160006101000a81548173ffffffffffffffffffffffffffffffffffffffff021916908373ffffffffffffffffffffffffffffffffffffffff160217905550826003600085815260200190815260200160002060010181905550816003600085815260200190815260200160002060020190805190602001906111e2929190611b82565b5082600460003373ffffffffffffffffffffffffffffffffffffffff1673ffffffffffffffffffffffffffffffffffffffff16815260200190815260200160002081905550505050565b6060600560003373ffffffffffffffffffffffffffffffffffffffff1673ffffffffffffffffffffffffffffffffffffffff1681526020019081526020016000208054806020026020016040519081016040528092919081815260200182805480156112b757602002820191906000526020600020905b8154815260200190600101908083116112a3575b5050505050905090565b606080606080600360008681526020019081526020016000206005016003600087815260200190815260200160002060040160036000888152602001908152602001600020600301600360008981526020019081526020016000206006018380548060200260200160405190810160405280929190818152602001828054801561136a57602002820191906000526020600020905b815481526020019060010190808311611356575b50505050509350828054806020026020016040519081016040528092919081815260200182805480156113bc57602002820191906000526020600020905b8154815260200190600101908083116113a8575b505050505092508180548060200260200160405190810160405280929190818152602001828054801561140e57602002820191906000526020600020905b8154815260200190600101908083116113fa575b505050505091508080548060200260200160405190810160405280929190818152602001828054801561146057602002820191906000526020600020905b81548152602001906001019080831161144c575b5050505050905093509350935093509193509193565b600260009054906101000a900473ffffffffffffffffffffffffffffffffffffffff1681565b3373ffffffffffffffffffffffffffffffffffffffff1660008083815260200190815260200160002060010160009054906101000a900473ffffffffffffffffffffffffffffffffffffffff1673ffffffffffffffffffffffffffffffffffffffff161461153f576040517f08c379a000000000000000000000000000000000000000000000000000000000815260040161153690612268565b60405180910390fd5b60036005811115611579577f4e487b7100000000000000000000000000000000000000000000000000000000600052602160045260246000fd5b600080838152602001908152602001600020600c015414156115d0576040517f08c379a00000000000000000000000000000000000000000000000000000000081526004016115c790612388565b60405180910390fd5b600580811115611609577f4e487b7100000000000000000000000000000000000000000000000000000000600052602160045260246000fd5b600080838152602001908152602001600020600c01541415611660576040517f08c379a000000000000000000000000000000000000000000000000000000000815260040161165790612368565b60405180910390fd5b6004600581111561169a577f4e487b7100000000000000000000000000000000000000000000000000000000600052602160045260246000fd5b600080838152602001908152602001600020600c015414156116f1576040517f08c379a00000000000000000000000000000000000000000000000000000000081526004016116e890612248565b60405180910390fd5b60058081111561172a577f4e487b7100000000000000000000000000000000000000000000000000000000600052602160045260246000fd5b600080838152602001908152602001600020600c018190555050565b6005602052816000526040600020818154811061176257600080fd5b90600052602060002001600091509150505481565b60036020528060005260406000206000915090508060000160009054906101000a900473ffffffffffffffffffffffffffffffffffffffff16908060010154908060020180546117c6906125d4565b80601f01602080910402602001604051908101604052809291908181526020018280546117f2906125d4565b801561183f5780601f106118145761010080835404028352916020019161183f565b820191906000526020600020905b81548152906001019060200180831161182257829003601f168201915b5050505050905083565b80600460003373ffffffffffffffffffffffffffffffffffffffff1673ffffffffffffffffffffffffffffffffffffffff1681526020019081526020016000205460008083815260200190815260200160002060060154146118e0576040517f08c379a00000000000000000000000000000000000000000000000000000000081526004016118d7906122a8565b60405180910390fd5b600080838152602001908152602001600020600b01600460003373ffffffffffffffffffffffffffffffffffffffff1673ffffffffffffffffffffffffffffffffffffffff16815260200190815260200160002054908060018154018082558091505060019003906000526020600020016000909190919091505560016005811115611995577f4e487b7100000000000000000000000000000000000000000000000000000000600052602160045260246000fd5b600080848152602001908152602001600020600c0181905550600460003373ffffffffffffffffffffffffffffffffffffffff1673ffffffffffffffffffffffffffffffffffffffff16815260200190815260200160002054600080848152602001908152602001600020600501541415611a1857611a1382610900565b611a95565b60036000600460003373ffffffffffffffffffffffffffffffffffffffff1673ffffffffffffffffffffffffffffffffffffffff1681526020019081526020016000205481526020019081526020016000206006018290806001815401808255809150506001900390600052602060002001600090919091909150555b600260009054906101000a900473ffffffffffffffffffffffffffffffffffffffff1673ffffffffffffffffffffffffffffffffffffffff1663e64e530260008085815260200190815260200160002060030154600460003373ffffffffffffffffffffffffffffffffffffffff1673ffffffffffffffffffffffffffffffffffffffff168152602001908152602001600020546040518363ffffffff1660e01b8152600401611b46929190612204565b600060405180830381600087803b158015611b6057600080fd5b505af1158015611b74573d6000803e3d6000fd5b505050505050565b60015481565b828054611b8e906125d4565b90600052602060002090601f016020900481019282611bb05760008555611bf7565b82601f10611bc957805160ff1916838001178555611bf7565b82800160010185558215611bf7579182015b82811115611bf6578251825591602001919060010190611bdb565b5b509050611c049190611c08565b5090565b5b80821115611c21576000816000905550600101611c09565b5090565b6000611c38611c33846124a2565b61247d565b905082815260208101848484011115611c5057600080fd5b611c5b848285612592565b509392505050565b600081359050611c728161299f565b92915050565b600081519050611c87816129b6565b92915050565b600082601f830112611c9e57600080fd5b8135611cae848260208601611c25565b91505092915050565b600081359050611cc6816129cd565b92915050565b600081519050611cdb816129cd565b92915050565b600060208284031215611cf357600080fd5b6000611d0184828501611c63565b91505092915050565b60008060408385031215611d1d57600080fd5b6000611d2b85828601611c63565b9250506020611d3c85828601611cb7565b9150509250929050565b600080600080600060a08688031215611d5e57600080fd5b6000611d6c88828901611c63565b9550506020611d7d88828901611cb7565b9450506040611d8e88828901611cb7565b9350506060611d9f88828901611cb7565b9250506080611db088828901611cb7565b9150509295509295909350565b600060208284031215611dcf57600080fd5b6000611ddd84828501611c78565b91505092915050565b600060208284031215611df857600080fd5b6000611e0684828501611cb7565b91505092915050565b600060208284031215611e2157600080fd5b6000611e2f84828501611ccc565b91505092915050565b60008060408385031215611e4b57600080fd5b6000611e5985828601611cb7565b925050602083013567ffffffffffffffff811115611e7657600080fd5b611e8285828601611c8d565b9150509250929050565b60008060408385031215611e9f57600080fd5b6000611ead85828601611cb7565b9250506020611ebe85828601611cb7565b9150509250929050565b6000611ed48383612125565b60208301905092915050565b611ee981612528565b82525050565b6000611efa826124e3565b611f048185612506565b9350611f0f836124d3565b8060005b83811015611f40578151611f278882611ec8565b9750611f32836124f9565b925050600181019050611f13565b5085935050505092915050565b611f568161253a565b82525050565b611f658161256e565b82525050565b6000611f76826124ee565b611f808185612517565b9350611f908185602086016125a1565b611f998161270d565b840191505092915050565b6000611fb1601083612517565b9150611fbc8261271e565b602082019050919050565b6000611fd4602683612517565b9150611fdf82612747565b604082019050919050565b6000611ff7601383612517565b915061200282612796565b602082019050919050565b600061201a602383612517565b9150612025826127bf565b604082019050919050565b600061203d602483612517565b91506120488261280e565b604082019050919050565b6000612060602583612517565b915061206b8261285d565b604082019050919050565b6000612083601383612517565b915061208e826128ac565b602082019050919050565b60006120a6603483612517565b91506120b1826128d5565b604082019050919050565b60006120c9601183612517565b91506120d482612924565b602082019050919050565b60006120ec601183612517565b91506120f78261294d565b602082019050919050565b600061210f601183612517565b915061211a82612976565b602082019050919050565b61212e81612564565b82525050565b61213d81612564565b82525050565b60006060820190506121586000830186611ee0565b6121656020830185612134565b81810360408301526121778184611f6b565b9050949350505050565b6000602082019050818103600083015261219b8184611eef565b905092915050565b600060808201905081810360008301526121bd8187611eef565b905081810360208301526121d18186611eef565b905081810360408301526121e58185611eef565b905081810360608301526121f98184611eef565b905095945050505050565b60006040820190506122196000830185611f4d565b6122266020830184612134565b9392505050565b60006020820190506122426000830184611f5c565b92915050565b6000602082019050818103600083015261226181611fa4565b9050919050565b6000602082019050818103600083015261228181611fc7565b9050919050565b600060208201905081810360008301526122a181611fea565b9050919050565b600060208201905081810360008301526122c18161200d565b9050919050565b600060208201905081810360008301526122e181612030565b9050919050565b6000602082019050818103600083015261230181612053565b9050919050565b6000602082019050818103600083015261232181612076565b9050919050565b6000602082019050818103600083015261234181612099565b9050919050565b60006020820190508181036000830152612361816120bc565b9050919050565b60006020820190508181036000830152612381816120df565b9050919050565b600060208201905081810360008301526123a181612102565b9050919050565b60006020820190506123bd6000830184612134565b92915050565b6000610180820190506123d9600083018f612134565b6123e6602083018e611ee0565b6123f3604083018d611ee0565b612400606083018c611f4d565b61240d608083018b612134565b61241a60a083018a612134565b61242760c0830189612134565b61243460e0830188612134565b612442610100830187612134565b612450610120830186612134565b61245e610140830185612134565b61246c610160830184612134565b9d9c50505050505050505050505050565b6000612487612498565b90506124938282612606565b919050565b6000604051905090565b600067ffffffffffffffff8211156124bd576124bc6126de565b5b6124c68261270d565b9050602081019050919050565b6000819050602082019050919050565b600081519050919050565b600081519050919050565b6000602082019050919050565b600082825260208201905092915050565b600082825260208201905092915050565b600061253382612544565b9050919050565b6000819050919050565b600073ffffffffffffffffffffffffffffffffffffffff82169050919050565b6000819050919050565b600061257982612580565b9050919050565b600061258b82612544565b9050919050565b82818337600083830152505050565b60005b838110156125bf5780820151818401526020810190506125a4565b838111156125ce576000848401525b50505050565b600060028204905060018216806125ec57607f821691505b60208210811415612600576125ff6126af565b5b50919050565b61260f8261270d565b810181811067ffffffffffffffff8211171561262e5761262d6126de565b5b80604052505050565b600061264282612564565b91507fffffffffffffffffffffffffffffffffffffffffffffffffffffffffffffffff82141561267557612674612680565b5b600182019050919050565b7f4e487b7100000000000000000000000000000000000000000000000000000000600052601160045260246000fd5b7f4e487b7100000000000000000000000000000000000000000000000000000000600052602260045260246000fd5b7f4e487b7100000000000000000000000000000000000000000000000000000000600052604160045260246000fd5b6000601f19601f8301169050919050565b7f416c72656164792052657475726e656400000000000000000000000000000000600082015250565b7f4f6e6c792073656e6465722063616e2063616e63656c2074686520636f6e736960008201527f676e6d656e740000000000000000000000000000000000000000000000000000602082015250565b7f48756220646f6573206e6f742065786973747300000000000000000000000000600082015250565b7f596f752063616e6e6f742072656365697665207468697320636f6e7369676e6d60008201527f656e740000000000000000000000000000000000000000000000000000000000602082015250565b7f596f752063616e6e6f742064656c6976657220612070726f6475637420696e2060008201527f7061737400000000000000000000000000000000000000000000000000000000602082015250565b7f50726f64756374206e6f7420617661696c6162652061742074686973206c6f6360008201527f6174696f6e000000000000000000000000000000000000000000000000000000602082015250565b7f556e656365737361727920446973706174636800000000000000000000000000600082015250565b7f596f752063616e6e6f7420446973707461636820636f6e7369676e6d656e742060008201527f776869636820796f7520646f6e27742068617665000000000000000000000000602082015250565b7f48756220616c7265616479206578697374000000000000000000000000000000600082015250565b7f416c72656164792043616e63656c6c6564000000000000000000000000000000600082015250565b7f416c72656164792044656c697665726564000000000000000000000000000000600082015250565b6129a881612528565b81146129b357600080fd5b50565b6129bf8161253a565b81146129ca57600080fd5b50565b6129d681612564565b81146129e157600080fd5b5056fea26469706673582212208caf6ab2f4644123a414294dc38aac68afee24f2dc4e462ad79b4f521c548f6264736f6c63430008030033",
  "immutableReferences": {},
  "source": "// SPDX-License-Identifier: MIT\r\n\r\npragma solidity ^0.8.0;\r\n\r\n// For testing\r\n// 0x5B38Da6a701c568545dCfcB03FcB875f56beddC4 - Althan - 395007\r\n// 0xAb8483F64d9C6d1EcF9b849Ae677dD3315835cb2 - Airoli - 411000\r\n// 0x4B20993Bc481177ec7E8f571ceCaE8A9e22C02db - Vashi - 511000\r\n// 0x78731D3Ca6b7E34aC0F824c42a7cC18A495cabaB - Wakad  - 411051\r\n// 0x617F2E2fD72FD9D5503197092aC168c91465E7f2 - Sender \r\n// 0x17F6AD8Ef982297579C203069C1DbfFE4348c372 - Receiver\r\n\r\n\r\n// Interface of Product Management Smart Contract to integrate shipment of a Product manufactured\r\ninterface ProductManagement{\r\n    function setProductLocation(bytes32 _hash, uint _newLocation) external;\r\n    function getProductLocation(uint _id) external view returns(uint location_);\r\n    function getProductHash(uint _id) external view returns(bytes32 hash_);\r\n}\r\n\r\ncontract TransitManagement{\r\n    \r\n    // State Variables\r\n    enum State{Registered, Waiting, InTransit, Delivered, Returned, Cancelled}\r\n    \r\n    // A blueprint of details for a normal consignment\r\n    struct Consignment{\r\n        uint consignment_id;\r\n        address sender;\r\n        address receiver;\r\n        bytes32 product_hash;\r\n        uint from_hub;\r\n        uint to_hub;\r\n        uint next_hub;\r\n        uint registered_date;\r\n        uint expected_arrival_date;\r\n        uint dispatched_date;\r\n        uint received_date;\r\n        uint[] hubs_hoped;\r\n        uint state;\r\n    }\r\n    // Mapping \r\n    mapping(uint=>Consignment) public consignments;\r\n    uint public consignment_counter;\r\n    \r\n    ProductManagement public products;\r\n    \r\n    struct Hub{\r\n        address manager;\r\n        uint location;\r\n        string name;\r\n        uint[] consignment_dispatched;\r\n        uint[] consignment_received;\r\n        uint[] consignment_hoped;\r\n        uint[] consignment_waiting;\r\n    }\r\n    mapping(uint=>Hub) public hubs;\r\n    mapping(address=>uint) public manager_to_hub;\r\n    \r\n    mapping(address=>uint[]) public sender_consignments;\r\n    \r\n    constructor (address _address) {\r\n        products = ProductManagement(_address);\r\n    }\r\n    \r\n    modifier requireHub(uint _from, uint _to) {\r\n        require(hubs[_from].location != 0 && hubs[_from].location != 0, \"Hub does not exists\" );\r\n        _;\r\n    }\r\n    \r\n    modifier requireDiffHub(uint _from, uint _to) {\r\n        require(_from != _to, \"Unecessary Dispatch\");\r\n        _;\r\n    }\r\n    \r\n    \r\n    // Function Declarations\r\n    function registerConsignment(address _receiver, uint _product, uint _from, uint _to, uint _expected_delivery ) requireHub(_from, _to) requireDiffHub(_from, _to) public {\r\n        consignment_counter++;\r\n        consignments[consignment_counter].consignment_id = consignment_counter;\r\n        consignments[consignment_counter].sender = msg.sender;\r\n        consignments[consignment_counter].product_hash = products.getProductHash(_product);\r\n        \r\n        require(_from == products.getProductLocation(_product),\"Product not availabe at this location\");\r\n        \r\n        consignments[consignment_counter].from_hub = _from;\r\n        consignments[consignment_counter].to_hub = _to;\r\n        consignments[consignment_counter].registered_date = block.timestamp;\r\n        consignments[consignment_counter].receiver = _receiver;\r\n        \r\n        require(_expected_delivery > block.timestamp, \"You cannot deliver a product in past\");\r\n        \r\n        consignments[consignment_counter].expected_arrival_date = _expected_delivery;\r\n        consignments[consignment_counter].state = uint(State.Registered);\r\n        consignments[consignment_counter].hubs_hoped.push(_from);\r\n        \r\n        \r\n        sender_consignments[msg.sender].push(consignment_counter);\r\n        \r\n        hubs[_from].consignment_waiting.push(consignment_counter);\r\n    }\r\n    \r\n    modifier uniqueHub(uint _location){\r\n        require(hubs[_location].manager == address(0) && manager_to_hub[msg.sender]==0, \"Hub already exist\");\r\n        _;\r\n    }\r\n    \r\n    function registerHub(uint _location, string memory _name) public uniqueHub(_location) {\r\n        hubs[_location].manager = msg.sender;\r\n        hubs[_location].location = _location;\r\n        hubs[_location].name = _name;\r\n        manager_to_hub[msg.sender] = _location;\r\n    }\r\n    \r\n    function cancelConsignment(uint id) public {\r\n        require(consignments[id].sender==msg.sender, \"Only sender can cancel the consignment\");\r\n        require(consignments[id].state!=uint(State.Delivered),\"Already Delivered\");\r\n        require(consignments[id].state!=uint(State.Cancelled),\"Already Cancelled\");\r\n        require(consignments[id].state!=uint(State.Returned),\"Already Returned\");\r\n        consignments[id].state = uint(State.Cancelled);\r\n    }\r\n    \r\n    modifier requireWaiting(uint _consignment_id) {\r\n        uint[] memory cw = hubs[manager_to_hub[msg.sender]].consignment_waiting;\r\n        uint flag;\r\n        for(uint i; i<cw.length ;i++){\r\n            if(cw[i]==_consignment_id){\r\n                flag = 1;\r\n            }\r\n        }\r\n        require(flag==1,\"You cannot Disptach consignment which you don't have\");\r\n        _;\r\n    }\r\n    \r\n    modifier requireDiffNextHub(uint _next_hub) {\r\n        require(_next_hub != manager_to_hub[msg.sender],\"You cannot dispatch it to yourselves\");\r\n        _;\r\n    }\r\n    function dispatch(uint _consignment_id, uint _next_hub) public requireWaiting(_consignment_id) {\r\n        consignments[_consignment_id].next_hub = _next_hub;\r\n        consignments[_consignment_id].state = uint(State.InTransit);\r\n        if(hubs[consignments[_consignment_id].from_hub].manager==msg.sender){\r\n            consignments[_consignment_id].dispatched_date = block.timestamp;\r\n            hubs[manager_to_hub[msg.sender]].consignment_dispatched.push(_consignment_id);\r\n            }\r\n            else{\r\n                hubs[manager_to_hub[msg.sender]].consignment_hoped.push(_consignment_id);\r\n            }\r\n            uint[] memory cw = hubs[manager_to_hub[msg.sender]].consignment_waiting;\r\n                for(uint i = 0; i<cw.length; i++){\r\n                    if(cw[i] == _consignment_id){\r\n                    delete hubs[manager_to_hub[msg.sender]].consignment_waiting[i];\r\n                }\r\n        }\r\n    }\r\n    \r\n    modifier requireIncoming(uint _consignment_id) {\r\n        require(consignments[_consignment_id].next_hub==manager_to_hub[msg.sender],\"You cannot receive this consignment\");\r\n        _;\r\n    }\r\n    \r\n    function received(uint _consignment_id) public requireIncoming(_consignment_id) {\r\n        consignments[_consignment_id].hubs_hoped.push(manager_to_hub[msg.sender]);\r\n        consignments[_consignment_id].state = uint(State.Waiting);\r\n        if(consignments[_consignment_id].to_hub == manager_to_hub[msg.sender]){\r\n            delivered(_consignment_id);\r\n        }else{\r\n            hubs[manager_to_hub[msg.sender]].consignment_waiting.push(_consignment_id);\r\n        }\r\n        products.setProductLocation(consignments[_consignment_id].product_hash,manager_to_hub[msg.sender]);\r\n    }\r\n    \r\n    modifier requireDestination(uint _consignment_id) {\r\n        require(consignments[_consignment_id].to_hub==manager_to_hub[msg.sender],\"You cannot receive this consignment\");\r\n        _;\r\n    }\r\n    \r\n    function delivered(uint _consignment_id) public requireDestination(_consignment_id) {\r\n        uint curr_hub = manager_to_hub[msg.sender];\r\n        consignments[_consignment_id].next_hub = 0;\r\n        consignments[_consignment_id].received_date = block.timestamp;\r\n        consignments[_consignment_id].state = uint(State.Delivered);\r\n        hubs[curr_hub].consignment_received.push(_consignment_id);\r\n    }\r\n    \r\n    function getMyConsignments() public view returns(uint[] memory) {\r\n        return sender_consignments[msg.sender];\r\n    }\r\n    \r\n    function getConsignmentHoped(uint _id) public view returns(uint[] memory hoped, uint[] memory _received, uint[] memory dispatched, uint[] memory waiting){\r\n        return (hubs[_id].consignment_hoped, hubs[_id].consignment_received, hubs[_id].consignment_dispatched, hubs[_id].consignment_waiting);\r\n    }\r\n    \r\n    function getHubHoped(uint _id) public view returns(uint[] memory){\r\n        return consignments[_id].hubs_hoped;\r\n    }\r\n    \r\n}",
  "sourcePath": "E:/Projects/BlockchainBootcamp/supplychain-traceability/contracts/TransitManagement.sol",
  "compiler": {
    "name": "solc",
    "version": "0.8.3+commit.8d00100c.Emscripten.clang"
  },
  "schemaVersion": "3.3.4",
  "updatedAt": "2021-04-10T16:10:18.490Z",
  "networkType": "ethereum",
  "devdoc": {
    "kind": "dev",
    "methods": {},
    "version": 1
  },
  "userdoc": {
    "kind": "user",
    "methods": {},
    "version": 1
  }
}